:100000000C9446030C947E030C947E030C947E03A4
:100010000C947E030C947E030C947E030C947E035C
:100020000C947E030C947E030C94FA230C94CE243F
:100030000C94861E0C947E030C947E030C947E0319
:100040000C947E030C947E030C947E030C947E032C
:100050000C947E030C94FD1E0C947E030C947E0382
:100060000C947E030C947E030C947E030C947E030C
:100070000C947E030C947E030C947E030C947E03FC
:100080000C947E030C947E030C947E030C947E03EC
:100090000C947E030C947E030C947E030C947E03DC
:1000A0000C947E030C947E030C947E0329003A008A
:1000B0003B003C003D003E003F004000410042004C
:1000C0004300440045000000680035001E001F008A
:1000D0002000210022002300240025002600270004
:1000E0002D002E002A004B002B0014001A000800DF
:1000F000150017001C0018000C00120013002F0040
:10010000300031004E0039000400160007000900DD
:100110000A000B000D000E000F0033003400280011
:1001200000004D00E1001D001B0006001900050045
:1001300011001000360037003800E50000005200C2
:100140004C00E000E300E200000000002C00000092
:100150000000E600015100005000000051004F0077
:100160000100010001000100010001000100010087
:100170000100010001000100010000000100010078
:100180000100010001000100010001000100010067
:100190000100010001000100010001000100010057
:1001A0000100010001000100010001000100010047
:1001B0000100010001000100010001000100010037
:1001C0000100010001000100010001000100010027
:1001D0000100010000000100010001000100010018
:1001E0000100010001000100010001000100010007
:1001F0000000C95C010001000100010000000000D6
:10020000C35C00000000C25C0100000001000000AF
:10021000CA5C0100010001000100010001000100B1
:1002200001000100010001000100010001000000C7
:1002300001000100010001000100010001000100B6
:1002400001000100010001000100010001000100A6
:100250000100010001000100010001000100010096
:100260000100010001000100010001000100010086
:100270000100010001000100010001000100010076
:100280000100010001000100000001000100010067
:100290000100010001000100010001000100010056
:1002A0000100010000000100010001000100010047
:1002B000000000000100000000000100010000003B
:1002C0000100000001000100010001000100010027
:1002D0000100010001000100010001000100010016
:1002E0000100000001000100010001000100010007
:1002F00001000100010001000100010001000100F6
:1003000001000100010001000100010001000100E5
:1003100001000100010001000100010001000100D5
:1003200001000100010001000100010001000100C5
:1003300001000100010001000100010000000100B6
:1003400001000100010001000100010001000100A5
:100350000100010001000100000001000100010096
:100360000100010000000000010000000000010089
:100370000100000001000000010001000000000079
:10038000000000002A2B28000000000000000000F0
:100390000000000000000029000000002C1E342096
:1003A000212224342627252E362D3738271E1F20BC
:1003B0002122232425263333362E37381F04050601
:1003C0000708090A0B0C0D0E0F1011121314151645
:1003D0001718191A1B1C1D2F3130232D3504050643
:1003E0000708090A0B0C0D0E0F1011121314151625
:1003F0001718191A1B1C1D2F3130354C0000000036
:1004000000000000000000000000000000000000EC
:1004100000000000000000000000000000000000DC
:100420007E0F00D4FFFFFFC700000078000101012C
:1004300001010101010102020202020202020203A1
:100440000303030303030304040404040404050571
:100450000505050606060606070707070708080834
:1004600008090909090A0A0A0B0B0B0C0C0C0D0DE3
:100470000D0E0E0E0F0F0F1010111111121213137B
:100480001414151516161717181819191A1A1B1BF4
:100490001C1D1D1E1E1F2020212222232424252650
:1004A00026272829292A2B2C2D2D2E2F3031323288
:1004B000333435363738393A3B3C3D3E3F40414294
:1004C000434445464748494A4C4D4E4F505153547A
:1004D000555658595A5B5D5E5F616264656668692E
:1004E0006B6C6D6F7072737577787A7B7D7E8082AE
:1004F000838587888A8C8E8F91939596989A9C9EF7
:10050000A0A2A3A5A7A9ABADAFB1B3B5B7BABCBE06
:10051000C0C2C4C6C9CBCDCFD1D4D6D8DBDDDFE2D3
:10052000E4E7E9EBEEF0F3F5F8FAFDFF140342001F
:100530005500420042004C004500200037003500C5
:1005400000000803500048004C00000004030904A8
:1005500009025B00030100A0FA0904000001030185
:100560000100092111010001224000070581030853
:10057000000109040100020300000009211101002B
:100580000122220007058203200001070503032042
:10059000000109040200010300000009211101000B
:1005A00001226D00070584032000011201000200F2
:1005B00000000842424C5A0100010200010660FF9F
:1005C0000961A1010962150026FF009520750881C7
:1005D000020963150026FF00952075089102C005E9
:1005E000010980A101850319012AB700150126B769
:1005F00000950175108100C0050C0901A101850459
:1006000019012AA002150126A0029501751081008A
:10061000C005010906A1018506050719E029E715AE
:100620000025019508750181020507190029EF15BC
:1006300000250195F075018102050819012905952C
:100640000575019102950175039101C00501090627
:10065000A101050719E029E7150025019508750195
:1006600081029501750881010507190029FF150010
:1006700026FF0095067508810005081901290595D2
:100680000575019102950175039101C011241FBEEA
:10069000CFEFDAE0DEBFCDBF04B603FE18C0809115
:1006A000650590916605A0916705B0916805873052
:1006B000904BA740B04B59F4109265051092660517
:1006C0001092670510926805E0E0F8E3099512E0E2
:1006D000A0E0B1E0E8E6FEE402C005900D92A63F7E
:1006E000B107D9F725E0A6EFB2E001C01D92A5360B
:1006F000B207E1F70E9434130C9409270C94000010
:100700000E94651D81FF07C02FEF4FEF6FEF89E358
:1007100090E00C941F14089580E00E9491160C94B0
:10072000841E81E0089581E008950C949303089558
:100730000C9497031F93CF93DF9300D000D00F92B8
:10074000CDB7DEB749835A836B833091F902898133
:100750009A8131111DC06623B9F02223A9F00E94AD
:10076000000A182F682F89819A810E94AC0969813B
:100770007A81812F0F900F900F900F900F90DF9143
:10078000CF911F910C949C1B0E94D809182FEFCF7A
:100790000E94000A69817A81EDCFFC01262F4081F9
:1007A00051816281738184810C949A0381E0089560
:1007B000CF93DF93EC0160E00E94CD03BE01DF9197
:1007C000CF910C949803E1E0F0E0DF0102C0AA0FA2
:1007D000BB1F6A95E2F7BD01DF0102C0AA0FBB1F74
:1007E0004A95E2F76A2B01C0EE0F2A95EAF7962F99
:1007F0009823961302C08E2B0895E0958E230895BA
:10080000242F462F682F80911E030E94E3030C942F
:1008100069090C94D5110C94D81108950E9405090A
:100820000E940D042FEF84E39CE021508040904013
:10083000E1F700C000000C94211F0F931F93CF938A
:10084000DF938C0161E00E94CD03EC01B8010E94AE
:10085000A718882309F441C0B801CE010E9495036E
:100860008823D9F1B801CE010E94FD1C8823A9F18B
:10087000B801CE010E949719882379F1B801CE0101
:100880000E94671C882349F1B801CE010E94A0177D
:10089000882319F1F8018281882361F0CA35FDE5CA
:1008A000DF0721F170F4C115ECE5DE07A1F0CE3DC4
:1008B000DC45C9F0C801DF91CF911F910F910C94D5
:1008C0009103CB358DE5D807A1F0CC35DD4591F707
:1008D0000E94200EEFCF0E940E0480E0DF91CF91A6
:1008E0001F910F9108950E94D90EF7CF0E94290EF3
:1008F000E1CF0E942C0EDECF0E94640580E00E94B2
:1009000091160C948C03DF92EF92FF920F931F933A
:10091000CF93DF93E82FF0E0E458FC4FD490282FDA
:1009200026952695269530E0F901E45EFB4F04916B
:10093000877010E0082E02C0159507950A94E2F71B
:1009400001701127F901E45FFB4FE490F12C082EB0
:1009500002C0F594E7940A94E2F791E0E922FF24BB
:10096000F901E450FC4FC491D0E002C0D595C79581
:100970008A95E2F7C170DD270115110519F081EEA6
:100980000E94B605E114F10419F086EE0E94B60546
:100990008D2D0E94A606EF2819F086EE0E944006D3
:1009A000012B19F081EE0E944006CD2B51F08CE214
:1009B000DF91CF911F910F91FF90EF90DF900C94FA
:1009C000A606DF91CF911F910F91FF90EF90DF90DE
:1009D0000895EF92FF920F931F93CF93DF93EC0153
:1009E000162F0AE08881882309F454C0813009F069
:1009F0004EC08981813099F47E0122E0E20EF11C23
:100A00008A810E94A606E7012196812F815050F32A
:100A1000EFE9FFE03197F1F700C00000F7CF823037
:100A200041F47E0182E0E80EF11C8A810E94B60545
:100A3000EACF833041F47E01E2E0EE0EF11C8A81C0
:100A40000E944006E0CF843011F02196DDCF2A814C
:100A5000229690E080E0AE014F5F5F4F2053330B52
:100A60002A30310548F0019778F2EFE9FFE031973D
:100A7000F1F700C00000F7CF089FB001099F700D8B
:100A80001124C901860F971F2981EA01E4CF0E9432
:100A90008304BACFDF91CF911F910F91FF90EF9018
:100AA000089560E00C94E90408950C94540581E0E5
:100AB00008950C9457050895CF93C82F0E945505AB
:100AC0008C2FCF910C9459050E94591D0C945C05F4
:100AD0000E94591D9091F802981721F08093F80216
:100AE0000C945C050895CF93DF93CDB7DEB72B97B9
:100AF0000FB6F894DEBF0FBECDBF4F83588769870E
:100B00007A878B8761110E946E0D1E821D8285E09F
:100B1000FE013796DE01119601900D928A95E1F75C
:100B20008C819D81892B89F449815A816B817C81DB
:100B30008D819E810E948F0C2B960FB6F894DEBF9C
:100B40000FBECDBFDF91CF91089589819A8189230E
:100B50008F3F51F3CE0101960E94D6038111E4CF5D
:100B6000EBCFFC01808191810C942D0ACF93C82F8B
:100B7000882309F483C08238C1F40E94591D81FD85
:100B80007DC089E30E94290D0E948E0D2FEF81EE1A
:100B900094E0215080409040E1F700C0000089E3DC
:100BA0000E94300DCF910C948E0D8338A1F40E94D9
:100BB000591D80FD63C083E50E94290D0E948E0DA2
:100BC0002FEF81EE94E0215080409040E1F700C08B
:100BD000000083E5E5CF8438A1F40E94591D82FD11
:100BE0004DC087E40E94290D0E948E0D2FEF81EEEB
:100BF00094E0215080409040E1F700C0000087E47D
:100C0000CFCF8CEF8C0F813A90F46C2F80914F02F4
:100C1000909150020E94C21D882329F08C2F0E94BF
:100C2000300D0E948E0D8C2F0E94290DBBCF80E2CB
:100C30008C0F883048F4C77081E001C0880FCA95D6
:100C4000EAF70E94510DAECFEBE5EC0FE33040F434
:100C5000F0E0EB56FD4F808190E0CF910C94821D27
:100C6000C85AC73158F4EC2FF0E0EE0FFF1FE959D6
:100C7000FD4F80819181CF910C94981DCF91089563
:100C8000882309F44BC0823871F40E94591D81FFFA
:100C900045C089E30E94290D0E948E0D89E30E94C0
:100CA000300D0C948E0D833859F40E94591D80FF2D
:100CB00035C083E50E94290D0E948E0D83E5EFCF9C
:100CC000843859F40E94591D82FF28C087E40E948D
:100CD000290D0E948E0D87E4E2CF9CEF980F913A88
:100CE000F0F290E2980F983050F4877091E001C0D4
:100CF000990F8A95EAF7892F0E94570DD2CF9BE56D
:100D0000980F933020F490E080E00C94821D885A74
:100D1000873120F490E080E00C94981D08951F9393
:100D2000CF93DF93182FEB010E94B605209731F483
:100D3000812FDF91CF911F910C9440068FE99FE0A6
:100D40000197F1F700C000002197F0CF70E060E05C
:100D5000893311F460E570E00C948F06882321F04C
:100D60000E94510D0C948E0D0895882321F00E944D
:100D7000570D0C948E0D0895BF92CF92DF92EF9293
:100D8000FF920F931F93CF93DF936C01D62FC72F42
:100D9000FC011281F580F2949FE0F9220E94470D38
:100DA000E82E8823B9F0E12E1123A1F08C2F807F4B
:100DB000803421F080E28D0F8830D0F080911504CE
:100DC00082FD16C082E00E94EF0D0E94470D91E067
:100DD000E82EE926BC2EB2948FE0B822FBE0FB158A
:100DE00008F468C0EB2DF0E0E55FF84D0C94942614
:100DF000E12CF0CF0C2F0F70C07F11F00295007F17
:100E0000112399F0002359F080E28D0F883010F003
:100E1000D11107C0802F0E94510D0E948E0D8D2F81
:100E200041C0802F0E94610DF8CF8D2F0E94400697
:100E3000002309F43FC080E28D0F883010F0D111FB
:100E400004C0802F0E94570D03C0802F0E94670DA1
:100E50000E948E0D2FC00C2F0F70C07FC03211F07A
:100E60000295007FDD2381F0D13009F469C01123A0
:100E700009F473C0FF2009F469C0F601858180FF81
:100E8000CECF8F70858362C08091150482FF38C0F9
:100E9000112359F0002329F0802F0E94510D0E9448
:100EA0008E0D80E00E94B60505C080E00E944006DD
:100EB0000111C7CFEB2DE850FF0B349720F40E94AF
:100EC000591D0E945C05EE2009F442C10E94430DA9
:100ED00080FD3EC1F60112820E943D0D0E947A09FA
:100EE000C6010E94C9080E943D0DDF91CF911F915C
:100EF0000F91FF90EF90DF90CF90BF900C948509F9
:100F0000112389F0F11006C00E94710D802B0E9400
:100F1000AE06D0CF21E0F212F7CF0E94710D802BE8
:100F20000E94770DC7CFF11006C00E94840D802F5C
:100F30000E94B506BFCF31E0F31609F4BBCFF5CF61
:100F4000112331F085E08F1508F4B4CF802FDFCF67
:100F500094E09F1508F4AECFEACFFF2041F3D933D8
:100F600049F4FFEF27EE33E0F15020403040E1F745
:100F700000C000008D2F0E9440069CCF8C2F8695CC
:100F80008695837069F0813009F094CF8D2F9C2F66
:100F90009370111102C090E080E00E94981D8ACFEA
:100FA0008D2F9C2F9370111102C090E080E00E9461
:100FB000821D80CF8C2F837079F511117BCF4D2F3F
:100FC000429546954770440F440F8D2F8F70042E25
:100FD00001C0880F0A94EAF72D2F2071D4FF07C0B3
:100FE0002FE030E001C0220F4A95EAF72095C69520
:100FF000C695C370822BC23049F058F4C13019F045
:101000000E945B0957CF0E94560954CF0E94600985
:1010100051CF0E9454094ECF8695112311F08C2F89
:101020008170882309F446CF4D2F4295469547702D
:10103000440F440F8D2F8F70042E01C0880F0A9427
:10104000EAF72D2F2071D4FF07C02FE030E001C058
:10105000220F4A95EAF72095C695C695C370822B54
:10106000C23049F058F4C13019F00E94A10922CFD2
:101070000E949C091FCF0E94A6091CCF0E946909EB
:1010800019CFCF70112329F08C2F0E947A098D2F50
:101090003ECF8D2F0E94B5068C2F0E9485090ACF66
:1010A000D23F51F160F4D03FB9F0D13F81F011232C
:1010B00009F449C0F110B3CE8C2F8F7121C0D33FFA
:1010C00011F1D43FA1F78091150482FF26C08C2F27
:1010D0008F71112311F314C0112349F084E08F158F
:1010E00008F4E8CE8C2F8F710E949109E3CE95E031
:1010F0009F1508F4DFCEF6CF8C2F8F711111CDCF55
:101100000E947A09D7CE112329F08C2F8F710E946B
:101110007209D0CE0E946F09CDCE112349F0CF7154
:101120008C2F0E947A0963E08C2F0E94D40DC2CECE
:1011300081E00E94EF0DE1E0EF1508F0BBCE82E008
:101140000E94EF0DB7CEF1100ACF8C2F8F71A5CF73
:10115000DF91CF911F910F91FF90EF90DF90CF9093
:10116000BF9008950F931F93CF93DF93EC01688195
:1011700079818A810E94370A8C010E94AB090E9402
:101180005309B801CE01DF91CF911F910F910C94BB
:10119000BC06CF93DF93EC018B819C81892B29F0D6
:1011A0008881998189238F3F59F4DF91CF910895E8
:1011B000CE010E94B208CE01DF91CF910C94D803EA
:1011C000CE010E941D048111F3CF0E94470D882398
:1011D00061F38A81882349F38091150482FDE5CF6C
:1011E00082E0DF91CF910C94EF0D90E080E00E94BF
:1011F000821D90E080E00E94981D0E946E0D0C946C
:101200008E0D0E94370D0C94F5080E945E0D0C9413
:10121000010992959F70963091F058F4925F9F70FB
:10122000923058F4803F19F030F4883E30F481E079
:1012300008959A5FF4CF843FD1F380E00895883E0B
:10124000B0F3813FD1F7F3CFFC01808191810E94FF
:101250002D0A0C940909CF93DF9300D000D00F9290
:10126000CDB7DEB70F900F900F900F900F90DF91DA
:10127000CF910895CF93DF9300D000D000D0CDB7A9
:10128000DEB726960FB6F894DEBF0FBECDBFDF9156
:10129000CF91089508950C944A090E944B098093B8
:1012A0001F030C94F50808950C944D0990911F03A9
:1012B000892B0C944D0990911F0389230C944D099F
:1012C00090911F0389270C944D090C944A090C94A2
:1012D00065090E94670980931E030C94F50880E05D
:1012E0000C94690991E001C0990F8A95EAF7892F5A
:1012F0000C94690921E030E001C0220F8A95EAF7D9
:1013000080911E03822B0C94690921E030E001C01A
:10131000220F8A95EAF7209580911E0382230C9470
:10132000690921E030E001C0220F8A95EAF7809137
:101330001E0382270C94690990911E03892B0C943B
:10134000690990911E0389230C94690990911E03E9
:1013500089270C94690908952FE0929F800D11242C
:10136000982F977041E001C0440F9A95EAF786954F
:101370008695869593E0899FF0011124E650FD4FF4
:1013800090E080E070E05191DF0111979B01082E01
:1013900002C0369527950A94E2F7217021952527FA
:1013A000242325272C9301968330910561F7089516
:1013B0002FE0929F800D1124982F97708695869527
:1013C000869523E0829FF0011124E650FD4F50E006
:1013D00040E080E0219130E0092E02C0369527954B
:1013E0000A94E2F721703327042E01C0220F0A94D9
:1013F000EAF7822B4F5F5F4F4330510559F708954D
:10140000CF92DF92FF920F931F93CF93DF936C01E4
:1014100000911E0380911F03082BC7E0D0E010E06D
:10142000FC2EC8010C2E02C0959587950A94E2F710
:1014300080FD0CC02197A0F7F12C8F2DDF91CF916B
:101440001F910F91FF90DF90CF900895B6018C2FE0
:101450000E94BF10019771F3F0CFCF93DF93EC019F
:101460000E94000ABE01DF91CF910C94BF101F9320
:10147000CF93DF93EB019091F902992331F0CB01E7
:10148000DF91CF911F910C942D0A882379F0CB0125
:101490000E94000A182F682FCE010E94AC09BE01DD
:1014A000812FDF91CF911F910C94BF10CB010E942F
:1014B000D809182FF4CF1F93CF93DF93C091200347
:1014C00016E0809121038C1304C0DF91CF911F910E
:1014D0000895D0E01C9FF0011D9FF00D1124EE5DDA
:1014E000FC4F4081518162817381848195810E948A
:1014F0003A092196C770E5CF4091520350915303AA
:101500006091540370915503809156039091570355
:101510000C943A09FF920F931F93CF93DF9380911E
:101520005703807FD1F4809154038823B1F08091D8
:101530002003109121036091520370915303A091F5
:101540005503B0915603062F0723C0914D02D09149
:101550004E0296E0F92E181306C0DF91CF911F912D
:101560000F91FF90089590E0109711F00F3F19F43C
:1015700001968770F0CFF89E9001F99E300D1124EE
:10158000F901EE5DFC4F41814713F2CF40814613D4
:10159000EFCF42814111ECCF438154814A1B5B0B59
:1015A0004C175D0728F7809157038F7080618093F7
:1015B0005703F901E95DFC4F80818F708061808362
:1015C00082E593E00E94C908DF91CF911F910F91AE
:1015D000FF900C945B0AAF92BF92CF92DF92EF9292
:1015E000FF920F931F93CF93DF93CDB7DEB7619731
:1015F0000FB6F894DEBF0FBECDBF8C0185E0F801B9
:10160000DE011D9601900D928A95E1F7F801E280C6
:1016100082E5C82E83E0D82E609155037091560361
:101620006115710509F45FC1909152032091530334
:10163000892F82238F3F09F456C140815181A380B5
:10164000B480F0905403F501E61BF70BBF01E09165
:101650004D02F0914E02FF2009F4F6C0809157032D
:10166000382F307F6E177F0708F0AFC0311179C077
:10167000FE2C251323C0941321C0E1101FC08F70CE
:101680008061809357030E947C0AC6010E94C908AA
:1016900080915703F80185838F2D61960FB6F894DA
:1016A000DEBF0FBECDBFDF91CF911F910F91FF9095
:1016B000EF90DF90CF90BF90AF900895AB2829F0C6
:1016C000842F85238F3F09F027C180E0F82FF17028
:1016D000DF2E80FF3CC0809120032091210336E063
:1016E000821315C04D875E878D859E850E942D0AC9
:1016F000292F22952F702230F0F0243018F59F709A
:10170000F1F0F8019581907FD1F4D12C1EC090E0CA
:10171000389FF001399FF00D1124EE5DFC4F61817F
:10172000651306C06081641303C062816E110FC02F
:1017300001968770D5CF9F7011F0882331F3805EBA
:10174000883018F3C8010E94C908FD2CA5CFEE20EF
:1017500009F4A2CF80915703816080935703F12C45
:101760009BCF251306C0941304C0F801EE2009F4A2
:1017700087C0C8010E942409882319F1EE2009F1CD
:1017800080915703803270F02091520330915303BF
:1017900038872F831986BB86AA868C87CE01079649
:1017A0000E94C90886E0F801A2E5B3E001900D921D
:1017B0008A95E1F70E948A0A0E947C0AFF24F3942A
:1017C0006BCFC8010E94C908F9CF311113C07A2D1F
:1017D000B98AA88A6E2D89890E942B0982E593E037
:1017E0000E94C90886E0F60111928A95E9F70E94E5
:1017F0007C0AB5CF25130FC094130DC0E1100BC0A8
:10180000F8018583C8010E94C90886E0F60111929B
:101810008A95E9F741CFC8010E942409882389F2FB
:10182000EE2079F280915703803208F4BBCF2091EB
:101830005203309153033A8329831B82BD82AC82C9
:101840008E83CE010196ACCF6E177F0708F03EC0A5
:10185000FE2CEE2009F4B5CF25132AC0941328C01E
:101860008091570380FD1BC0982F907FC1F0F80135
:101870008583903F31F0982F907F905F8F70892BF8
:101880008583C8010E94C90886E0F801A2E5B3E09B
:1018900001900D928A95E1F70E947C0AFDCE86E0C8
:1018A000F801A2E5B3E001900D928A95E1F7F4CE3C
:1018B000C8010E942409811175CF8091570381606E
:1018C00080935703C8010E94C908E6CE7A2DB98AD1
:1018D000A88A6E2D89890E942B0986E0F601119253
:1018E0008A95E9F7D9CFEE2009F46BCFC8010E94A1
:1018F0002409F82E882309F464CF86E0F801A2E5D4
:10190000B3E001900D928A95E1F782E593E00E94A1
:10191000B1050E948A0AC0CF81E08E25D7CE1F93E1
:10192000CF93DF93CDB7DEB72C970FB6F894DEBF19
:101930000FBECDBF4F83588769877A878B879C8777
:10194000CE0107960E94EB0A882369F08A859B8561
:10195000892B39F04F815885842F85238F3F09F0DB
:1019600071C016E05FC086E0FE013796DE01119679
:1019700001900D928A95E1F78A859B85892B89F3E1
:101980008F81988589238F3F61F32091210330E077
:10199000C9010196877099274091200348171906BD
:1019A00071F40E940509109221031092200386E031
:1019B000E2E5F3E0DF011D928A95E9F7D2CF96E0E8
:1019C000929FD001939FB00D1124AE5DBC4FFE01DC
:1019D000319601900D929A95E1F7809321030E9430
:1019E0005B0ABFCF819FC00111248E5D9C4F0E9476
:1019F000EB0A8823E9F0E09120031E9FF0011124F7
:101A0000EE5DFC4F408151816281738184819581BB
:101A10000E943A098091200390E0019687709927EF
:101A20008093200380912003909121038913DACFC2
:101A30002C960FB6F894DEBF0FBECDBFDF91CF91CD
:101A40001F91089569857A858B859C850E943A0946
:101A500088CF682F80914F02909150020C94421EC3
:101A6000682F80914F02909150020C944D1E8091EE
:101A70004F02909150020C94581E809178038595E6
:101A80008595859508958091780387700895909144
:101A90007803977081E009F480E0089580919B03BA
:101AA000089590919B03892B80939B0308958095C3
:101AB00090919B03982390939B03089510929B030E
:101AC000089590919A03892B80939A0308958095A5
:101AD00090919A03982390939A03089510929A03F1
:101AE000089580917903089508950C94740D909150
:101AF000150492FD08C090917903981721F0809306
:101B000079030C94750D089580917903882329F049
:101B10001092790380E00C94750D0895CF93DF93B4
:101B2000E0914F02F091500280919B038083E091FD
:101B30004F02F0915002808190919A03892B80830B
:101B400090917903992381F0E0914F02F091500236
:101B50008081892B808380914F02909150020E9456
:101B6000AE1D81110E94840DC0914F02D091500290
:101B700040E250E068E573E0CE010E94A126892B87
:101B800069F080E2FE01A8E5B3E001900D928A952C
:101B9000E1F7CE01DF91CF910C94681DDF91CF91D9
:101BA000089508950C94D10D9091150492FD10C0E4
:101BB00098E0899F90011124622B609378030E9422
:101BC0007A09809178038595859585950C94D20D39
:101BD0000C947A091092780380E00C94D20D9091C5
:101BE00078038095892380937803282F277091F4B8
:101BF000282F082E000C330B9217130659F09091E2
:101C0000150492FD07C08595859585950E948509E7
:101C10000C94EA0D08959091150492FB222720F967
:101C2000281769F080FB92F99093150480911404B1
:101C3000909115040E94560E82E00C94EF0D0895C9
:101C40008091150482FB882780F991E089270C9404
:101C50000B0E81E00C940B0E80E00C940B0E6FEFDA
:101C60007FEF90E080E00C94032790E080E00E94FA
:101C7000CF26893E9E4F11F40C94451880E00895BC
:101C800082E090E00C94C72683E090E00C94C72695
:101C9000CF9384E090E00E94C726C82F82E290E0B4
:101CA0000E94C726982F8C2FCF910895CF93C92FCC
:101CB000682F84E090E00E94E5266C2F82E290E09D
:101CC000CF910C94E526AB01BC018FE090E00C9421
:101CD000F726AB01BC0183E190E00C94F72660E0AD
:101CE00070E0CB010C94690E60E070E0CB010E94C3
:101CF000630E0C946F0E69EE7EEF90E080E00E9420
:101D0000032760E082E090E00E94E52660E083E047
:101D100090E00E94E52610921F0360E084E090E0CE
:101D20000E94E52660E082E290E00E94E52660E005
:101D300085E090E00E94E52660E086E090E00E9469
:101D4000E5266FEF87E090E00E94E52640E050E056
:101D5000BA0188E090E00E94F72660E08DE090E014
:101D60000E94E52640E050E0BA0188E190E00E9440
:101D7000F72660E087E190E00E94E52640E050E031
:101D8000BA018CE190E00E94F72670E060E080E20A
:101D900090E00E94032740E050E0BA0188E190E023
:101DA0000E94F72680E00E945E180E948B180C9417
:101DB000740E0C947B0E682F8EE090E00C94E52658
:101DC0000E94C61E6093AC037093AD038093AE0374
:101DD0009093AF036093A8037093A9038093AA0321
:101DE0009093AB03089585B7806885BF85B78068F9
:101DF00085BF0895089508950C94FB0E08950C94E2
:101E0000FE0E0E94F30E8DE991E10E944F1D0E948B
:101E1000FA0E0C94FC0E81E008950C940B0F0895BB
:101E200008950E940F0F0C94100F0E94BA110E9487
:101E30005B050C942D160E94B11E0E949A180E94F8
:101E40008E120E94150FE4E1F4E0808180688083A7
:101E500080911404909115040E94560E0C94FF0E6C
:101E60007F928F929F92AF92BF92CF92DF92EF922A
:101E7000FF920F931F93CF93DF93CDB7DEB72A97CF
:101E80000FB6F894DEBF0FBECDBF0E94A312E82E9E
:101E900081110E94E00E5CE9852E53E0952E10E042
:101EA00000E0702E802F0E94DA115C01F401C190D5
:101EB000D1904F01C816D906B1F40F5F1F4F0630FD
:101EC000110579F78FEF89838A831B820E94BA1EDE
:101ED0008160782F9D838C8349815A816B818D81AC
:101EE0000E9473053DC08091B00381FD0E94E31103
:101EF000C6018A259B25F12CCC24C394D12C9C01AE
:101F00002C213D21232B09F443C00E940D0F950184
:101F10002C213D21BB24B394232B09F4B12C88231D
:101F200079F0FE827F82B8860E94BA1E8160782F87
:101F30009A8789874E815F8168858A850E947305AB
:101F4000000F111FF801E456FC4F80819181C826D3
:101F5000D926D182C0824B2D6F2D872D0E946B1404
:101F600081E0E11001C080E02A960FB6F894DEBF50
:101F70000FBECDBFDF91CF911F910F91FF90EF90DA
:101F8000DF90CF90BF90AF909F908F907F900895FB
:101F9000F394CC0CDD1CFFE0FF12B1CF8ECF0E947A
:101FA000300F0E9469150C946805CF93DF930E944F
:101FB000C310EC01811522E59207E8F5811531E5A2
:101FC000930708F0ACC0883E910510F5803E91055E
:101FD00070F5883A910570F4853A910508F078C05B
:101FE0008130910521F1009711F1049700F5D0E0BF
:101FF000C0E01DC08F3B9105D0F7C85AD0E0CC0F90
:10200000DD1FC856DD4F0990D881C02DD4640FC0A4
:10201000811540E5940708F066C0C11580E4D80733
:1020200008F05EC0CE019A9581159F4100F7CE0160
:10203000DF91CF910895811536E5930718F5811545
:1020400045E5940708F083C0C11584E5D80708F07A
:1020500079C09C2F969596959E0123703327C115C4
:10206000D34508F461C0C1E0D0E002C0CC0FDD1F51
:102070002A95E2F730E2939FC0011124C82BD92B97
:10208000DA68D5CFC1158AE5D80778F4C11599E586
:10209000D90708F066C0C11528E5D20708F4A7CF14
:1020A000DC2FCC27C06FD06AC2CFCE0190568115ED
:1020B000904208F09CCF8D2F8F710E945A1190E0B2
:1020C000982F882788279F719C012C2BE90147C0F6
:1020D000C55AD0E0CA53DD4FC881D0E0D064A7CF45
:1020E000DF70D06AA4CFE4E096958795EA95E1F792
:1020F00083702C2F26952695237040E2249F900113
:102100001124382B8C2F8370C1E0D0E002C0CC0F9B
:10211000DD1F8A95E2F7C22BD32BDC6888CFD82F3E
:10212000CC27C16FD06A83CFC1E0D0E002C0CC0F12
:10213000DD1F2A95E2F720E2929FC0011124C82BEF
:10214000D92BEBCFDC2FCC27C46FD06A70CF0E9485
:102150005A11C82FD0E0DC2FCC27CC27DF71D062FA
:1021600066CF8C2F8F700E945A1134E0D695C79598
:102170003A95E1F7CF709C2FEC01D06958CF0E94BF
:102180009C1B0C94D50F82389105B1F1B0F48133CA
:10219000910509F475C048F48932910509F469C0C4
:1021A0008A32910509F473C008958533910509F4C5
:1021B00059C08933910501F10895833E9105A9F134
:1021C00038F4803E9105F9F0823E910549F1089579
:1021D000863E9105A9F1873E9105C9F1843E91059E
:1021E00019F52091150421FF1FC08091140484FD6E
:1021F00014C087EE90E00895209114042370A1F09C
:1022000080EE90E008952091140420FD47C03091A5
:10221000150430FF09C024FF44C090E080E004C0F2
:102220002091140422FDF7CF08952091140422FD7B
:102230003BC03091150430FDE3CF24FFF5CFEDCF47
:102240002091140423FFF0CF24FDE7CFD2CF2091BB
:10225000140423FD2CC03091150431FFEECF84EE21
:1022600090E008952091140425FFDECF89E290E0EC
:1022700008952091140425FFD7CF85E390E00895B9
:102280002091140426FFD0CF8AE290E00895209197
:10229000140426FFC9CF81E390E0089589E390E01C
:1022A000089583EE90E0089582EE90E0089586EE22
:1022B00090E008959091140492FF06C0282F287191
:1022C0002830F9F4877F846093FF06C0282F287197
:1022D0002831F1F4877E84612091150420FF06C027
:1022E000382F38713830D9F4877F816021FF06C0DC
:1022F000282F28712831D1F4877E816194FD877E53
:102300000895282F24712430F9F68B7F8860DCCF64
:10231000282F2471243101F78B7E8861DDCF382F7F
:102320003171313019F78E7F8860E0CF282F21710D
:10233000213121F78E7E8861E1CF80E008950C94F1
:102340002F0E0E94A3122FEF86E791E021508040CC
:102350009040E1F700C000000E94A31280E00E94BC
:10236000DA1180FF04C00E949F110C94211F089570
:102370000C94A1110E94350E811102C00E94D90E49
:102380000E94400E8093B0030E94480E9093150463
:10239000809314040E94B8110E94440E0E945409B4
:1023A00080911E030C94670908950C94D41108952C
:1023B0000C94D711E82FF0E0EE0FFF1FEE5DFB4FFE
:1023C000808191810895089580EA8A95F1F70895B2
:1023D00000C008950C94E411F894E82FE295EF7092
:1023E000F0E031A1282F2F7081E090E001C0880F2C
:1023F0002A95EAF7982F9095932391A392A1892B80
:1024000082A378940895CF93DF93C8EDD2E08991A9
:102410008F3F11F00E94EC1182E0CE3DD807B9F752
:10242000C9ECD2E089918F3F11F00E94EC1182E05B
:10243000C83DD807B9F7DF91CF910895AF92BF9209
:10244000DF92EF92FF920F931F93CF93DF938C0154
:10245000D62EC62FD0E0CE0188529D4F7C01FC01C4
:1024600020812F3F09F44DC0F894E22FE295EF70E0
:10247000F0E031A12F7081E090E001C0880F2A9533
:10248000EAF7932F982B91A392A18095892382A399
:1024900078940E94E811E9ECF2E048ED52E021E086
:1024A00030E0B12CA12C61916F3FA9F1A62FA2952C
:1024B000AF70B0E090968C9190E06F7002C09595EF
:1024C00087956A95E2F780FD26C0C901A82AB92A36
:1024D000220F331F4E175F0731F7F70180818F3FBF
:1024E00011F00E94EC1161E0A114B10409F460E064
:1024F0008D2D0E94EA11CC0FDD1FC00FD11FB982B4
:10250000A882DF91CF911F910F91FF90EF90DF9004
:10251000BF90AF90089590E080E0D8CF0E94031262
:102520008CE0E2E2F4E0DF01982F1D929A95E9F742
:10253000E6E1F4E0DF011D928A95E9F786E00E946A
:10254000EE120C940904FF920F931F93CF93DF9325
:10255000CDB7DEB72C970FB6F894DEBF0FBECDBF58
:102560008E010F5F1F4F8CE0F80111928A95E9F7F9
:10257000F12C6F2DC8010E941E12F394F6E0FF1299
:10258000F8CF4CE050E0B80186E194E00E94A1262B
:10259000FF24F394009709F4F12C892B41F08CE08F
:1025A000F801A6E1B4E001900D928A95E1F72F2D94
:1025B00046E062E274E086E194E00E94EF120E943D
:1025C0000B048F2D2C960FB6F894DEBF0FBECDBF37
:1025D000DF91CF911F910F91FF9008950895FF9281
:1025E0000F931F93CF93DF93F82E092F162FD72F1A
:1025F000C42F222349F081E08093B3030E94BA1EC6
:102600009093B2038093B1038091B3038823A1F028
:102610008091B1039091B2030E94D21E059760F0A1
:10262000EF2DF02FA12FBD2F90E080E0D0E08C1790
:102630009D0744F01092B303DF91CF911F910F914A
:10264000FF900895219131912D933D930196EFCF05
:102650000E94FE200E941B0F0C940A210E940E2152
:102660000E94CF0F0C940F210E94851E0E94E5202E
:102670000E94010F0E9428130E942E130E94110F26
:10268000FBCFEF92FF920F931F93CF93DF93EB015A
:10269000E82FD11110C0442321F0F0E0E45DFB4F9E
:1026A000E4916E2F7E2F8E2FDF91CF911F910F918E
:1026B000FF90EF9008950D2F10E0282F30E0442375
:1026C00029F0245D3B4FF901249130E0F6E0CF9FE3
:1026D000C0011124EFEFF0E0BF010E948026AB01A2
:1026E0008C2F90E0880F991FA5E5A49FB001A59FAE
:1026F000700D1124861B970B982F990F980FBF010F
:10270000601B710B629FD001639FB00D729FB00D73
:1027100011248B2F9D9FB0011124672F7727EF0184
:10272000C61BD70BBE01629FE001639FD00D729F55
:10273000D00D11247F01E91AF108E09EB001E19E5D
:10274000700DF09E700D1124672F7727E61BF70B95
:10275000E29F8001E39F100DF29F100D1124E12FE5
:10276000722F4230510599F048F44115510569F036
:102770004130510581F0EB2F8D2F07C044305105BA
:1027800069F080F046305105B1F76E2F8DCFE22F02
:102790007B2F812FFACFE22F7D2FF7CFEB2F822FC8
:1027A000712FF3CF7B2F822FED2FEFCF41E00C94D1
:1027B000411346E050E06CE170E08EE294E00E944C
:1027C000D5261092B40308950C94D613EEE2F4E0EB
:1027D00085E080838091640290916502A0916602F9
:1027E00081839283A3838FE784838FEF85830C9407
:1027F000D91380E008950F931F93CF93DF93C82FD1
:10280000D62F8A010E94F9139FE0C99FB0011124BD
:1028100060507F4F6D0F711DFB0190819F3F29F02C
:10282000F801E80FF11D90838F5FDF91CF911F9129
:102830000F910895E091E402F091E5020994E0918E
:10284000E002F091E1020994BF92CF92DF92EF9201
:10285000FF920F931F93CF93DF937C01FC01C08104
:1028600081E1C89FC02D112411E11C0F012F1235E9
:1028700008F001E560912F047091300480913104DB
:102880000E94E413D62EC72EB82ED0E0C01770F0E9
:1028900081E0113508F080E0DF91CF911F910F9119
:1028A000FF90EF90DF90CF90BF900895FE01E4502D
:1028B000FE4F8081F7019181892331F02B2D4D2D21
:1028C0006C2DCE010E941F142196E0CFE091E20210
:1028D000F091E3020994CF92DF92FF920F931F933E
:1028E000CF93DF93CDB7DEB728970FB6F894DEBF4E
:1028F0000FBECDBF182F062FF42E0E940B0F88237A
:1029000009F44CC0FF2009F457C0AE014F5F5F4F80
:10291000602F812F0E94FB13F82E0F2D10E0809165
:10292000B503800F912F911D09976CF188E090E01D
:102930006C01C01AD10AB8016A547C4FA60186EB1B
:1029400093E00E94AE26B80162547C4FA6018EEB44
:1029500093E00E94AE26A601440F551FB801660FF2
:10296000771F62537C4F8EEC93E00E94AE26B80135
:102970006A537C4FA60186EC93E00E94AE2688E065
:102980008F198093B5031091B503DE01119640E0D5
:10299000842F810FF41212C08093B50328960FB6CE
:1029A000F894DEBF0FBECDBFDF91CF911F910F9185
:1029B000FF90DF90CF900895F12CAFCF5D91252F40
:1029C00030E090E0BC016B547C4FF901EE0FFF1F2B
:1029D000E65AFE4F0081FB010183220F331FF901EC
:1029E000E55AFE4F2081FB012187518B880F991FEB
:1029F000FC01EB54FC4F128E118E4F5FC9CFCF9369
:102A0000C82F809155028C1335C090912E0493707D
:102A10002091560230E081E09217130609F480E01D
:102A200081708093540280913304909153029817DF
:102A300039F08093530240E060E080E00E94661429
:102A4000CC23D1F0C13011F180E0909152029F5F10
:102A50009093520281110CC082E0809351028091C8
:102A60005402811105C0C11103C083E0809351025B
:102A7000CF91089581E0D4CF80915402882329F327
:102A800040E060E080E00E946614DECF82E592E0E4
:102A90000E942414DACF08950E9480030C944B15F1
:102AA00008950895CF93DF93FC01C08181E1C89F11
:102AB000C02D1124DFEEDC0FC23508F0C1E56C2F0C
:102AC0008D2F0E9450156C2F8D2FDF91CF910C947C
:102AD00051154F925F926F927F928F929F92AF9219
:102AE000BF92CF92DF92EF92FF92CF936091DE037D
:102AF0007091DF038091E0039091E1030E94E11E59
:102B00006B017C010E94C61E4B015C018092DE03BA
:102B10009092DF03A092E003B092E103A091B5038D
:102B2000E5EBF3E08A2F90E04FEF5FEF60E070E0BD
:102B30004C195D096E097F09A9132AC08093B5035A
:102B40008091E203C0E0811108C080912E04C82F5B
:102B5000C37019F0C82FC695C69580915102813077
:102B600009F440C0882339F1823009F453C083301E
:102B700009F45BC0CF91FF90EF90DF90CF90BF90B2
:102B8000AF909F908F907F906F905F904F9008953F
:102B9000218D328D2901712C612C44155505660556
:102BA000770520F481509F5F3296C6CF2C0D3D1DD6
:102BB000328F218FF8CF109252028092340490927B
:102BC0003504A0923604B092370489E2E5EBF3E0D5
:102BD000A8E3B4E001900D928A95E1F781E080933B
:102BE0005102C8CF8C2F0E94FF14CC2319F20E94EF
:102BF0004C1582E592E0CF91FF90EF90DF90CF905F
:102C0000BF90AF909F908F907F906F905F904F900C
:102C10000C945215C093550280912E0483708093BA
:102C200056020E941A1483E0DACF8091B403811116
:102C30000E94D91360913404709135048091360458
:102C4000909137040E94E11E603171058105910564
:102C500008F490CF109251028DCFE091DE02F091F6
:102C6000DF020995109238048FEF9FEF9093520482
:102C7000809351049093540480935304909356048A
:102C800080935504909358048093570490935A046A
:102C90008093590490935C0480935B0490935E044A
:102CA00080935D049093600480935F041092B50359
:102CB0009093CF038093CE039093D1038093D0035E
:102CC0009093D3038093D2039093D5038093D4033E
:102CD0009093D7038093D6039093D9038093D8031E
:102CE0009093DB038093DA039093DD038093DC03FE
:102CF0000E94350E811104C00E94D90E0E94E61375
:102D000046E050E06CE170E08EE294E00E94B7266D
:102D10001092B40380912E048C7F11F40C94E6136E
:102D20000895CF93C82F882391F08091E2038111F9
:102D30000EC00E94FF141092550280912E048370E1
:102D4000809356020E941A1483E080935102C0932C
:102D5000E203CF910895EEE2F4E0908121E0922722
:102D60009083109251029091B403892B8093B40305
:102D7000089581E00C94AB1680912E04837051F07D
:102D8000846080932E04109251028091B403862BAC
:102D90008093B403089561E00C94BC16682F81E021
:102DA0000C94BC1681E00C94CE16682F90912E04E2
:102DB000969596958FEF890F09F481E00C94BC16D7
:102DC00081E00C94D51690912E04937071F080934D
:102DD0002F0460933004453B08F044EB40933104EA
:102DE0008091B403822B8093B4030895AEE2B4E0E3
:102DF0001196EC911197F0E0282F13964C911397B0
:102E000012966C91CF0108960C94E31681E00C9415
:102E1000F616EEE2F4E09181282F43816281E92FDA
:102E2000E850FF0BCF010C94E31681E00C940917D6
:102E3000EEE2F4E0628120E1620F08F46FEF91812D
:102E4000282F4381892F90E00C94E31681E00C94A5
:102E50001817EEE2F4E0628120E1621B08F460E002
:102E60009181282F4381892F90E00C94E31681E013
:102E70000C942917EEE2F4E0438120E1420F08F4BC
:102E80004FEF9181282F6281892F90E00C94E316F7
:102E900081E00C943A17EEE2F4E0438120E1421B1A
:102EA00008F440E09181282F6281892F90E00C94F2
:102EB000E31681E00C944B17809332048091B403A5
:102EC000862B8093B40308952091320430E1230FC0
:102ED00008F42FEF682F822F0C945C1781E00C947C
:102EE00064172091320430E1231B08F420E0682F9E
:102EF000822F0C945C1781E00C9471170895FC01EB
:102F0000EE0FFF1FE80FF91FEF59FB4F618340835E
:102F100022830895E1E6F4E081836083428333965F
:102F200095E0E435F907C1F7089561E570E081E6C1
:102F300094E00C941918FA01811101C0FB01099465
:102F40001F93CF93DF93EC01FB01128111114FC04E
:102F50000E944E0D8272C93CFCE5DF0709F460C097
:102F600030F5C53CECE5DE0709F455C060F4C33C20
:102F70009CE5D90709F443C008F048C0C23CDC45D1
:102F8000D9F111E034C047E357E166E277E1C73C8D
:102F90009CE5D907C1F146E057E165E177E1C83C1E
:102FA000DC4588F146E257E167E377E12CC0CD3C90
:102FB000FCE5DF07D1F1A0F44BE757E16EE677E1DE
:102FC000CB3CECE5DE07F9F048E457E169E577E151
:102FD000CC3CDC45C0F04EE657E16BE777E113C02F
:102FE000C63D8CE5D80718F0CD35DD4551F6812F6B
:102FF000DF91CF911F9108950E94B916F8CF40EE4E
:1030000056E162ED76E10E949B17F1CF42ED56E169
:1030100060EE76E1F8CF45E157E166E077E1F3CF86
:1030200049E557E168E477E1EECF81E00E94CB16F5
:10303000DECF279A45B14F7755B15068EFB7F89476
:103040009B01220F331F260F371F280F391F281708
:10305000390741F4EFBF8FE594E00197F1F700C025
:1030600000000895DC016D91CD0178E055B90000B4
:1030700000C067FF45B9660F000000C000C000C077
:1030800045B900C07A9591F7E2CF83E290E00E94C3
:10309000C726823289F484E290E00E94C7268630F7
:1030A00059F485E290E00E94C72691E0843209F04D
:1030B00090E0892F8170089580E0FCCFCF93C82FD6
:1030C0006FEF811162E283E290E00E94E5266FEFEC
:1030D000C11166E084E290E00E94E5266FEFC11125
:1030E00064E285E290E0CF910C94E526089586E2B3
:1030F00090E00E94C726682F70E090E080E008957D
:103100000895CF93C62F0E9480186C2F86E290E01E
:10311000CF910C94E52680E00E945E1860E070E09C
:10312000CB010E9481180E94141B0E94001C81E0A8
:103130000C945E180E9476180E9477180E948018DE
:103140000E944518811102C00C948B180895CF93EA
:10315000FB01C281CC2309F19C0122513F45203162
:10316000310520F582510E94101CC0E08C2FCF91B8
:10317000089581E00E947A0943E062E081E00E94C4
:103180000004F3CF81E00E94850943E062E081E022
:103190000E940004EBCF82E0F6CF8031FFE59F076D
:1031A00089F381319F45B9F3C1E0E0CF8031EFE58C
:1031B0009E07F9F281319F45C9F682E0DBCF2FEF00
:1031C000FC0120830895EF92FF920F931F93CF93FA
:1031D000DF93EC01062FE881E150E33108F05EC097
:1031E000F0E0E95EF84D0C949426198289E08A8318
:1031F000602FCE01DF91CF911F910F91FF90EF9043
:103200000C94BC1F8981823069F0833071F0813069
:10321000D9F40E94C61E0E949A266A837B838C83FF
:103220009D83E6CF0E947718F6CF7E0110E0812FB4
:103230000E94DA11F701928383831F5FF2E0EF0EA1
:10324000F11C1630A1F7D4CF602FCE010E94DF18F9
:10325000CFCF89818230C1F76A817B818C819D814A
:103260000E949A260E948118C3CF4B816A8189816E
:103270000E94E61A9827892798279D838C83B8CFC8
:103280002C813D813227232732274B816A81898116
:103290000E94FF1AADCF0E94141BAACF8FEF888324
:1032A000A7CF0E94A91B8983A3CF0E94AB1B98279D
:1032B000892798279A8389839BCF6B8170E08981C6
:1032C0009A81AE014C5F5F4F9827892798270E940B
:1032D000AE1B8ECF6B8170E089819A81AE014C5F0D
:1032E0005F4F9827892798270E94D51B81CF0E947E
:1032F000001C7ECF0E94D41AD6CF6B8170E08981EA
:103300009A81AE014C5F5F4F9827892798270E94CA
:103310004C1B6ECF6B8170E089819A81AE014C5F4E
:103320005F4F9827892798270E94721B61CFCF9300
:10333000DF93EC01FB018281882309F433C1C330A0
:10334000FDE5DF07C0F5CA3F9CE5D90730F49E01D3
:1033500022503C4524313105B0F50E94480E90932F
:10336000150480931404C1318CE5D80709F4EEC02C
:1033700008F069C0C930ECE5DE0709F4D5C0C8F52E
:10338000C5308CE5D80709F4C7C000F5C330ECE5BB
:10339000DE0709F4B9C008F0BBC0C230DC4509F44F
:1033A000ADC080911404909115040E94560E0E94A5
:1033B000050980E008C0C136EDE5DE0771F2C53AC7
:1033C000FDE5DF0751F2DF91CF910895809114045C
:1033D0008062C7309CE5D90709F493C0809114043A
:1033E0008061C830DC4508F48CC08091140480648E
:1033F00088C0809114048B7FCD30FCE5DF0709F491
:1034000080C098F4809114048E7FCB309CE5D9075E
:1034100009F477C0809114048C60CC30DC4508F44A
:1034200070C0809114048D7F6CC0809114048F7ED5
:10343000CF30FCE5DF0709F464C008F47BC080915D
:1034400014048F7D5EC0CD3F9CE5D90709F47AC096
:1034500050F5C531FCE5DF0709F486C098F480918A
:103460001404837FC3319CE5D90709F44AC008F4EA
:1034700071C00E94050990911404892F97FB87F968
:1034800080583FC0CB3FFCE5DF0709F449C008F096
:1034900055C0809115048160CA3FDC4509F081CF99
:1034A000809315047ECFC130EDE5DE0709F468C0D6
:1034B000A8F4CF3F8CE5D80709F452C080911504D9
:1034C0008360C115DD4560F380911504982F9095B8
:1034D00091708E7F892B90FB81F9E2CFC136EDE5AB
:1034E000DE0709F451C0C53AFDE5DF0709F453C012
:1034F000C230DD4509F055CF80E043C0809114040F
:103500008160809314044DCF809114048260F9CFC0
:10351000809114048460F5CF809114048860F1CF09
:10352000809115048260BCCF0E940509809114042B
:103530008068E7CF80911404877FE3CF80911504E2
:103540008E7FAECF809115048D7FAACF8091140419
:103550008F7BD7CF0E940509809114048F77D1CF3C
:10356000809115048C7F9CCF8091140482FB992755
:1035700090F921E0922790FB82F990FB83F9C1CF6B
:1035800081E00E94DB0E0DCF90911404892F8F7E75
:1035900094FF8061B6CF90911404892F8E7F90FFA5
:1035A0008160AFCF81E00FCF84E0089550E0440FF9
:1035B000551F9EE1699F400D511D112494EB899F79
:1035C000400D511D1124CA01879608950F931F9332
:1035D000CF93DF930E94D61A8C010E94C726C82F72
:1035E000D0E0DC2FCC27C80101960E94C7269E019F
:1035F000282BC901DF91CF911F910F9108950F934F
:103600001F93CF93DF93122F032F0E94D61AEC0142
:10361000602F0E94E526612FCE010196DF91CF91A8
:103620001F910F910C94E526AF92BF92CF92DF923B
:10363000EF92FF921F93CF93DF938CEAC82E80E026
:10364000D82ED0E07601C0E014C0F5012591349168
:10365000412F6C2F8D2F0E94FF1A82E0A80EB11C03
:103660001F5F1F3091F78EE1E80EF11CCF5FC6306F
:1036700019F0570110E0E9CFDF5F84EBC80ED11CD1
:10368000D43001F7DF91CF911F91FF90EF90DF9041
:10369000CF90BF90AF900895EF92FF920F931F933A
:1036A000CF93DF93EC018A017C01E60EF71ECE0179
:1036B0008796CE15DF0539F4DF91CF911F910F91D9
:1036C000FF90EF900895C03D22E0D20740F40E94A1
:1036D000C726F80180830F5F1F4F2196E8CFF801BE
:1036E0001082F9CFCF92DF92EF92FF920F931F9348
:1036F000CF93DF937C016A018C01060F171FEC0149
:10370000CE018796C017D10749F4DF91CF911F9161
:103710000F91FF90EF90DF90CF900895C03D22E091
:10372000D20740F4FE01EE19FF09EC0DFD1D60818A
:103730000E94E5262196E4CF462F843038F4763077
:1037400028F46F3018F4672F0C94E61A90E080E0AC
:10375000089580E1089589E091E00895EF92FF9245
:103760000F931F93CF93DF93EC018A017C01E60E48
:10377000F71ECE0189509D4FCE15DF0539F4DF913C
:10378000CF911F910F91FF90EF900895C93021E0E4
:10379000D20740F40E94C726F80180830F5F1F4FB5
:1037A0002196E7CFF8011082F9CFCF92DF92EF9206
:1037B000FF920F931F93CF93DF937C016A018C01DB
:1037C000060F171FEC01CE0189509D4FC017D1077E
:1037D00049F4DF91CF911F910F91FF90EF90DF900F
:1037E000CF900895C93021E0D20740F4FE01EE19D0
:1037F000FF09EC0DFD1D60810E94E5262196E3CFB7
:10380000CF93DF93C7EFD2E060E0CE010E94E526C0
:103810002196C11584E0D807B9F7DF91CF910895BB
:10382000DF92EF92FF920F931F93CF93DF9300D01D
:1038300000D0CDB7DEB7F82E8FE08F1540F08FEFB8
:1038400093E00E94C72607EF12E08823C1F00F9093
:103850000F900F900F90DF91CF911F910F91FF90DC
:10386000EF90DF900895011584E0180781F3C801F7
:103870000E94C726811101C0FA940F5F1F4FF110FB
:10388000F2CF19821A821B821C82DD24D394780124
:103890008FEFE81AF80AC8010E94C72689831A82A6
:1038A0008823A9F29FEF980F933078F48A83D98206
:1038B0000E5F1F4FC7010E94C7268B83882339F2F2
:1038C000CE0101960E945105E2CF8701F9CFCF9337
:1038D000DF93EB0186319C4511F50E944E0D9A81D4
:1038E000992399F08A7A91E009F490E09093E303A8
:1038F000811109C089E20E94290D0E948E0D80E08D
:10390000DF91CF91089585E3F6CF8091E303811194
:1039100004C089E20E94300DF0CF85E3FBCF81E047
:10392000EFCF0F931F93CF93DF93C42FD22FFC01C0
:1039300082818823C9F04093E6030E94BA1E9093C7
:10394000E5038093E40380E28C0F883008F050C0D8
:10395000C77081E001C0880FCA95EAF7DF91CF9167
:103960001F910F910C94AE061091E603141335C00D
:103970008091E4039091E5030E94D21E883C91055A
:1039800060F5C0E2CD0F1D17B9F080E2810F8830DD
:1039900040F4177081E001C0880F1A95EAF70E9481
:1039A000B506C83048F481E09D2F977001C0880F9C
:1039B0009A95EAF70E94AE06802F0E94A606C830AC
:1039C000B8F4D77081E001C0880FDA95EAF7DF918B
:1039D000CF911F910F910C94B50680E28C0F883027
:1039E00038F4C77081E001C0880FCA95EAF7EFCFBD
:1039F000DF91CF911F910F9108950F939C01CB01FF
:103A0000233F4CE5340759F1A8F4283DFCE53F0776
:103A100001F1293D4CE53407D1F1273D3C4591F4B6
:103A200006E221EE41EE67ED7CE50E94911C80E00C
:103A30000F910895253FFCE53F07E9F0B0F0263FE0
:103A40003C45F9F0FC018281882339F11092E603AC
:103A5000EFCF07E225EE45EE68ED7CE5E6CF06E226
:103A600021EE40EE63EF7CE5E0CF07E225EE44EE89
:103A700064EF7CE5DACF06E221EE42EE65EF7CE50D
:103A8000D4CF07E225EE46EE66EF7CE5CECF08E226
:103A900021E045EE69ED7CE5C8CF81E0C9CF909388
:103AA000F7028093F60208959093EC038093EB0362
:103AB0000895E091EB03F091EC03309721F0019031
:103AC000F081E02D099480E008950E94591D089529
:103AD000E091EB03F091EC03309799F020916302B1
:103AE000222359F02091140427FF07C0DC012C91F8
:103AF00011962C93119726E02C930280F381E02DF0
:103B0000099408952091E9033091EA0328173907B1
:103B100071F09093EA038093E903E091EB03F09155
:103B2000EC03309721F00680F781E02D0994089589
:103B30002091E7033091E8032817390771F090933B
:103B4000E8038093E703E091EB03F091EC033097F7
:103B500021F00084F185E02D09940895FC0132964E
:103B600080916302882321F0809114049EE187FFF5
:103B700096E080E0915008F4089521912223D1F33A
:103B80008F5FF8CF662301F1209163022223F1F0C9
:103B90002091140427FF1AC0462F46954695469556
:103BA0004E3190F4677021E030E002C0220F331FE5
:103BB0006A95E2F7840F911DFC01828190E0282331
:103BC000392381E0232B69F480E00895FC013296CB
:103BD00008962191261721F0E817F907D1F7F4CFBD
:103BE00081E008959C01FC0132969FEF80E04191B5
:103BF000461751F09F3F19F4411101C0982F8F5F74
:103C00008630A9F79F3F09F40895290F311D97FDCC
:103C10003A95F90162830895FC0132960896219144
:103C2000261303C0DF0111971C92E817F907B9F7B3
:103C30000895E62FE695E695E695EE3168F4E80FEF
:103C4000F92FF11D677021E030E001C0220F6A9565
:103C5000EAF78281822B82830895E62FE695E69526
:103C6000E695EE3170F4E80FF92FF11D677021E051
:103C700030E001C0220F6A95EAF72095828128235F
:103C80002283089520916302222329F020911404B5
:103C900027FD0C94191E0C94F21D2091630222231F
:103CA00029F02091140427FD0C942D1E0C940C1E59
:103CB000FC01329680916302882351F080911404B4
:103CC00087FF06C08EE1DF011D928A95E9F708950E
:103CD00086E0F9CF08950C946A1E811105C081E039
:103CE0008093ED030C946B1E82E0FACF83E0809307
:103CF000ED030C946B1E0C946D1E81E08093ED031C
:103D00000C946B1E0C947D1E089508951F921FB68F
:103D10001F9211248F939F93AF93BF938091EE03D3
:103D2000811113C08091540590915505A0915605BD
:103D3000B09157054196A11DB11D809354059093F4
:103D40005505A0935605B0935705BF91AF919F912C
:103D50008F911F901FBE1F9018950E9405090C940B
:103D60007C0482E084BD93E095BD9AEF97BD80937B
:103D70006E0008952FB7F8948091540590915505E1
:103D8000A0915605B09157052FBF08952FB7F8940D
:103D90006091540570915505809156059091570595
:103DA0002FBF08959C014FB7F894809154059091CE
:103DB0005505A0915605B09157054FBF821B930B37
:103DC0000895CF92DF92EF92FF922FB7F894C090B0
:103DD0005405D0905505E0905605F09057052FBF3B
:103DE000A7019601261B370B480B590BCA01B901D5
:103DF000FF90EF90DF90CF90089578941F921FB6B8
:103E00001F9211248F939F93AF93BF93809154057A
:103E100090915505A0915605B09157050196A11DA9
:103E2000B11D8093540590935505A0935605B0930A
:103E30005705BF91AF919F918F911F901FBE1F900B
:103E4000189581E08093E00080E28093D800109282
:103E5000C9008FE19EE40197F1F700C0000087E000
:103E600090EBDC018093650590936605A093670550
:103E7000B093680588E19CE00FB6F894A89580930C
:103E800060000FBE90936000FFCF809112040895F0
:103E90000895CF93DF93EC01809163028823B1F101
:103EA0008091140487FF32C060E284E08093E900CF
:103EB0008FEF9091E800815095FD06C095ED9A95A1
:103EC000F1F700008111F5CF8091E80085FF1BC05C
:103ED0008091630270E050E040E0811104C050E046
:103EE00040E068E070E0CE010E94A0218091E800EF
:103EF0008E778093E80080E2FE01A2EFB3E00190AC
:103F00000D928A95E1F7DF91CF91089568E081E005
:103F1000CDCF8093EF037093F1036093F003809112
:103F20005C058430F9F48093E9008FEF9091E8000C
:103F3000815095FD06C095ED9A95F1F7000081112D
:103F4000F5CF8091E80085FF0DC050E040E063E0D0
:103F500070E08FEE93E00E94A0218091E8008E77C0
:103F60008093E8000895BC0184E00C94891FBC0193
:103F700083E00C94891F0895CF93FC01603221F5F2
:103F800080915C05843001F5C091E900CF702091EB
:103F9000EC00922F917020FD90E8C92B82E0809375
:103FA000E9008091E80080FF0CC050E040E060E252
:103FB00070E0CF010E94A0218091E8008E7780936D
:103FC000E800CF70C093E900CF91089580915B0520
:103FD000811109C00E947F230E94DC238091E200AE
:103FE00084608093E200089510925B0508950C941C
:103FF0007D1E6091580581E0611101C080E00C9444
:10400000761E0E94AD1E90915C0581E0943009F00F
:1040100080E0609158050C947B1E42E061EC81E0E9
:104020000E94FB2242E261EC84E00E94FB2242E219
:1040300061EC82E00E94FB2242E260EC83E00E949D
:10404000FB2290915C0581E0943009F080E0609162
:1040500058050C946D1E80915E05833009F462C092
:1040600030F48130D9F1823009F49EC008958A304D
:1040700009F48AC08B3009F470C0893009F051C04E
:1040800080915D05813209F04CC08091610590916D
:104090006205009719F0029709F043C08091E8008B
:1040A000877F8093E8008091E80082FF36C090917E
:1040B000F3008091F200029731F48091F100813099
:1040C00011F0863021F48091F100809312048091E8
:1040D000E8008B778093E8000C942F2380915D0596
:1040E000813AF9F48091E800877F8093E80080911D
:1040F000610590916205892B61F460E282EF93E0A3
:1041000070E00E943E228091E8008B778093E80067
:10411000089560E090E080E0F3CF80915C0581112C
:10412000C2CF089580915D05813AD9F780916105EC
:1041300090916205892BA9F78091E800877F809391
:10414000E8008091E80080FFFCCF809163028093BB
:10415000F1008091E8008E77BDCF80915D058132BE
:1041600001F78091610590916205892BD1F68091CC
:10417000E800877F8093E8000E942F2380915F05ED
:10418000809363020C94050980915D05813249F6A4
:104190008091E800877F8093E8000E942F23809120
:1041A000600580931304089580915D05813A09F0BC
:1041B000B8CF8091E800877F8093E8008091E80085
:1041C00080FFFCCF80911304C2CF84B7877F84BF68
:1041D0000FB6F894A8958091600088618093600084
:1041E000109260000FBE80E890E00FB6F8948093C4
:1041F0006100909361000FBE0C94821E0E947F2389
:104200000E94DC23E2EEF0E0808184608083789479
:104210000C94652687E592E00C94541D0895CF9385
:10422000DF93CDB7DEB7A0970FB6F894DEBF0FBE11
:10423000CDBF80915C05843009F583E08093E9006F
:104240008091E80082FF1AC08091E80090E085FF2D
:1042500009C050E040E060E270E0CE0101960E94AB
:10426000EF2191E08091E8008B778093E80099231B
:1042700029F060E2CE0101960E94E318A0960FB6E5
:10428000F894DEBF0FBECDBFDF91CF9108950C949F
:104290004921292F33272330310521F168F42130BA
:1042A000310509F443C02230310509F444C090E0DF
:1042B00080E030E020E026C02132310551F1223289
:1042C0003105A9F76330710590F7FB01EE0FFF1F71
:1042D000E751FD4F208131816A517D4FFB01808183
:1042E00090E010C099278130910581F0009729F066
:1042F0000297E9F6ECE2F5E002C0ECE4F5E0849127
:1043000090E09F01FA01318320830895E2E4F5E013
:10431000F6CF6330710558F6660F771FFB01E15148
:10432000FD4F2081318189E090E0ECCF82E190E087
:104330002BEA35E0E7CF8BE590E020E535E0E2CFF2
:10434000AF92BF92CF92DF92FF920F931F93CF93C2
:10435000DF936C01EB018A010E944E23F82E81113C
:1043600023C00115110539F0F80180819181C81B26
:10437000D90BC80ED91EB12CA12C2097A9F0809181
:10438000E80085FD22C08091E8008E778093E800E8
:1043900001151105A1F0F80180819181A80EB91EC7
:1043A000B182A08285E0F82E8F2DDF91CF911F91F1
:1043B0000F91FF90DF90CF90BF90AF9008950E9433
:1043C0004E238823D1F2F82EEFCFF60181916F01B1
:1043D0008093F1002197FFEFAF1ABF0ACECFAF92C3
:1043E000BF92CF92DF92FF920F931F93CF93DF93F1
:1043F0006C01EB018A010E944E23F82E811123C02B
:104400000115110539F0F80180819181C81BD90B84
:10441000C80ED91EB12CA12C2097A9F08091E800DC
:1044200085FD22C08091E8008B778093E80001151C
:104430001105A1F0F80180819181A80EB91EB18209
:10444000A08285E0F82E8F2DDF91CF911F910F91E3
:10445000FF90DF90CF90BF90AF9008950E944E23C1
:104460008823D1F2F82EEFCF8091F100F6018193ED
:104470006F012197FFEFAF1ABF0ACECFFC018091E9
:1044800063059091640586179707A0F06115710583
:1044900029F49091E8009E779093E80090E06115F0
:1044A000710551F4911108C08091E80082FF34C079
:1044B00080E00895BC01F2CF80915C058823C1F1B2
:1044C0008530C1F18091E80083FD30C08091E80023
:1044D00082FDEACF8091E80080FFE1CF8091F30078
:1044E0002091F200382F6115710519F0283031053F
:1044F00058F091E02830310509F090E02091E80073
:104500002E772093E800CBCF81918093F10061500A
:1045100071092F5F3F4FE7CF80915C05882341F001
:10452000853041F08091E80083FFBECF81E008959F
:1045300082E0089583E00895FC01809163059091E5
:10454000640586179707A0F06115710529F480911D
:10455000E8008E778093E80090E06115710551F4D2
:10456000911108C08091E80082FF35C080E0089575
:10457000BC01F2CF80915C058823C9F18530C9F177
:104580008091E80083FD31C08091E80082FDEACF90
:104590008091E80080FFE1CF8091F3002091F2004C
:1045A000382F6115710519F02830310558F091E068
:1045B0002830310509F090E08091E8008E778093F3
:1045C000E800CBCF84918093F1003196615071095E
:1045D0002F5F3F4FE6CF80915C05882341F0853007
:1045E00041F08091E80083FFBDCF81E0089582E033
:1045F000089583E00895982F973028F08F70809366
:10460000E90081E008959093E900242F762F50E08F
:10461000981731F07091EC002091ED005091F0006E
:1046200021FD02C09F5FE8CF3091EB003E7F3093C9
:10463000EB003091ED003D7F3093ED003091EB00C9
:1046400031603093EB007093EC002093ED005093B9
:10465000F0002091EE0027FDE5CF80E008958091E5
:104660005D0587FF13C08091E80082FF06C080913E
:10467000E8008B778093E80004C080915C0581118D
:10468000F2CF089580915C058823D9F38091E800EA
:1046900080FFF8CF8091E8008E77ECCF2091E40086
:1046A0003091E50095E6A9012091EC00822F817000
:1046B00020FF06C08091E80080FF06C080E00895DA
:1046C0002091E80022FD1AC080915C05882389F0C2
:1046D000853089F08091EB0085FD0FC02091E400CA
:1046E0003091E50042175307F9F29150E1F684E06A
:1046F000089582E0089583E0089581E008950E947E
:10470000ED230E94F523E0EEF0E08081816080835C
:10471000E8EDF0E080818F77808319BCA7EDB0E0F1
:104720008C918E7F8C9380818F7E808310925B052D
:1047300008950F931F93CF93DF930E94ED230E9460
:10474000F523C8EDD0E088818F77888388818068E1
:10475000888388818F7D888319BC10925C051092B4
:10476000580510925A051092590500EE10E0F80114
:1047700080818B7F808388818160888342E060E0D4
:1047800080E00E94FB22E1EEF0E080818E7F80835A
:10479000E2EEF0E0808181608083808188608083A8
:1047A000F80180818E7F8083888180618883DF919A
:1047B000CF911F910F910895E8EDF0E080818F7EF9
:1047C0008083E7EDF0E080818160808384E082BFB8
:1047D00081E080935B050C949923E8EDF0E0808103
:1047E0008E7F80831092E20008951092DA0010927A
:1047F000E10008951F920F920FB60F9211242F938C
:104800003F934F935F936F937F938F939F93AF9358
:10481000BF93EF93FF938091E10082FF0BC08091E3
:10482000E20082FF07C08091E1008B7F8093E1006E
:104830000E9464268091DA0080FF19C08091D80020
:1048400080FF15C08091DA008E7F8093DA0080911E
:10485000D90080FF96C080E189BD82E189BD09B49D
:1048600000FEFDCF81E080935C050E94E61F8091F1
:10487000E10080FF19C08091E20080FF15C08091A7
:10488000E2008E7F8093E2008091E200806180935D
:10489000E2008091D80080628093D80019BC85E046
:1048A00080935C050E94F91F8091E10084FF2BC07A
:1048B0008091E20084FF27C080E189BD82E189BD4B
:1048C00089B5982F917080FFFBCF8091D8008F7DA4
:1048D0008093D8008091E1008F7E8093E1008091E9
:1048E000E2008F7E8093E2008091E20081608093FD
:1048F000E20080915805882309F449C084E0809340
:104900005C050E9401208091E10083FF29C0809115
:10491000E20083FF25C08091E100877F8093E10062
:1049200082E080935C05109258058091E1008E7FB3
:104930008093E1008091E2008E7F8093E20080917D
:10494000E20080618093E20042E060E080E00E944B
:10495000FB228091F00088608093F0000E94F71F96
:10496000FF91EF91BF91AF919F918F917F916F9147
:104970005F914F913F912F910F900FBE0F901F901D
:10498000189519BC10925C050E94F41F70CF80919D
:10499000E30087FD93E090935C05B3CF1F920F92E5
:1049A0000FB60F9211242F933F934F935F936F9302
:1049B0007F938F939F93AF93BF93CF93DF93EF93A7
:1049C000FF93D091E900DF708091EC00C82FC17097
:1049D00080FDC0E81092E9008091F000877F80930D
:1049E000F00078940E9412251092E9008091F00066
:1049F00088608093F000CD2BCF70C093E900FF91C9
:104A0000EF91DF91CF91BF91AF919F918F917F9166
:104A10006F915F914F913F912F910F900FBE0F902B
:104A20001F9018951F93CF93DF93CDB7DEB7AA974A
:104A30000FB6F894DEBF0FBECDBF8DE595E0209197
:104A4000F100FC012193CF01F5E085369F07B9F70E
:104A50000E942B208091E80083FF1EC180915D059C
:104A600090915E059A3008F017C1E92FF0E0E65DFD
:104A7000F84D0C949426803899F0823809F00CC1D6
:104A8000809161058F70873008F006C18093E9003E
:104A90008091EB0085FB882780F91092E90006C021
:104AA0008091590590915A05911182609091E8008A
:104AB000977F9093E8008093F1001092F10080912D
:104AC000E8008E77E5C0882309F4D3C0823009F06E
:104AD000E3C080915F058111D6C0809161058F7020
:104AE0002FEF280F263008F0D7C08093E9002091DF
:104AF000EB0020FFC8C0933031F48091EB0080625E
:104B00008093EB00C0C09091EB0090619093EB001C
:104B100021E030E001C0220F8A95EAF72093EA00F5
:104B20001092EA008091EB008860EACF8111B4C056
:104B300010915F051F778091E3008078812B80932F
:104B4000E3008091E800877F8093E8000E942F2394
:104B50008091E80080FFFCCF8091E3008068809323
:104B6000E30082E0111183E080935C0595C08058DA
:104B7000823008F091C080915F05909160058C3D76
:104B800023E09207A1F583E08A838AE289834FB705
:104B9000F894DE01139620E03EE051E2E32FF0E0CE
:104BA00050935700E49120FF03C0E295EF703F5F00
:104BB000EF708E2F90E0EA30C0F0C7968D939D93F2
:104BC0002F5F243159F74FBF8091E800877F809392
:104BD000E8006AE270E0CE0101960E943E228091D8
:104BE000E8008B778093E80057C0C096E7CF6091CC
:104BF000610570916205AE014F5F5F4F0E944721D2
:104C0000BC01892B09F448C09091E800977F9093EC
:104C1000E80089819A810E949C22E1CF8038E1F5E9
:104C20008091E800877F8093E80080915805809309
:104C3000F10045CF811130C090915F05923060F551
:104C40008091E800877F8093E800909358050E9448
:104C50002F2380915805882311F084E005C08091AE
:104C6000E30087FDFACF81E080935C050E940D2070
:104C700013C080915F05813079F481E0933009F0B1
:104C800080E080935A051092E9008091E800877FC8
:104C90008093E8000E942F238091E80083FF0AC0E0
:104CA0008091E800877F8093E8008091EB0080622C
:104CB0008093EB00AA960FB6F894DEBF0FBECDBF6F
:104CC000DF91CF911F9108950895CF9380915C0556
:104CD0008823A1F0C091E900CF709091EC00892F5A
:104CE000817090FD80E8C82B1092E9008091E80067
:104CF00083FD0E941225CF70C093E900CF910895E3
:104D0000AA1BBB1B51E107C0AA1FBB1FA617B707F1
:104D100010F0A61BB70B881F991F5A95A9F780950D
:104D20009095BC01CD010895EE0FFF1F0590F49101
:104D3000E02D099469279627692778278727782700
:104D40000895FB01DC0104C08D910190801921F4CC
:104D500041505040C8F7881B990B0895FB01DC01B6
:104D600002C001900D9241505040D8F70895DC01E7
:104D7000CB01FC01F999FECF06C0F2BDE1BDF89A66
:104D8000319600B40D9241505040B8F70895F9990A
:104D9000FECF92BD81BDF89A992780B50895A8E10C
:104DA000B0E042E050E00C94B926DC01A40FB51F3E
:104DB0004150504048F0CB01840F951F2E910E9426
:104DC000E62641505040D0F70895262FF999FECF9E
:104DD00092BD81BDF89A019700B4021639F01FBA4E
:104DE00020BD0FB6F894FA9AF99A0FBE089503966B
:104DF000272F0E94E6260E94E526252F0E94E62600
:104E0000242F0C94E6260196272F0E94E6260C9468
:104E1000E526F894FFCFFA06FA062B072B07BE0704
:104E20005A075A075A07DA07410850085008F51878
:104E300002192919351940194B194E194E194E19D5
:104E40004E194E19511955195D196A1977197A19A0
:104E50007D198A193B2563254C2663254C2696250A
:084E6000B7254C260E261A2688
:104E6800000102030405060708090A0B0CFF0D1CC4
:104E78001B1A191817161514131211100F0E1D1ED0
:104E88001F202122232425262728292A2B39383791
:104E9800363534333231302F2E2DFF2C3A3B3C3D02
:104EA8003E3F404142434445FF4647504F4EFFFF77
:104EB8004DFFFF4C4BFF4AFF4948000017002600F2
:104EC800360045004B005A00690078008F009E00AC
:104ED800AD00BC00E100E112CB12B412A51296128B
:104EE8008712781269125A124B123C122D121E1296
:104EF8000F120012041E131E221E311E401E4F1ECA
:104F0800541E631E721E811E901E9F1EAE1EDB1E47
:104F1800E11EE129C929BF29A129922983297429D8
:104F2800652956294729382929291A2906290D3496
:104F38002234313440344F345E346D347C348B3415
:104F48009A34A934BD34D234E134E140D240C3406C
:104F5800BA40A7405E4027401540024004040404BC
:104F680004040404040404040404040404040404F9
:104F780004040404040404040404040404040404E9
:104F880004040404040404040404040404040404D9
:104F980004040404040404040404040404040404C9
:104FA80004040404040404040404040404C8007A83
:104FB800030300FF00FFFF451F491FBB1FB71FB3B7
:104FC8001F481F0100FFB4E200E900EA00B500B67F
:104FD80000B700CD008301CC008A01920194012121
:104FE80002230224022502260227022A02B300B461
:104FF800006F007000818283E200E900EA00B500DA
:10500800B600B700CD008301CC008A01920194015B
:105018002102230224022502260227022A02B300C3
:10502800B4006F00700081828330313233C6F09053
:105038009194969734353666F4F5F6F767F17E174E
:105048007F178A17951740226D4C06BD05DF05624C
:06505800057B059B05002D
:00000001FF
